:020000040800F2
:100000000000022011050008F501000801020008A7
:10001000090200081102000819020008000000008F
:1000200000000000000000000000000021020008A5
:100030002D020008000000003902000845020008F7
:100040005905000859050008590500085905000818
:100050005905000859050008590500085905000808
:1000600059050008590500085905000859050008F8
:1000700059050008590500085905000859050008E8
:1000800059050008590500085905000859050008D8
:1000900059050008590500085905000859050008C8
:1000A00059050008590500085905000859050008B8
:1000B00059050008590500085905000859050008A8
:1000C0005905000859050008590500085905000898
:1000D0005905000859050008590500085905000888
:1000E0005905000859050008590500085905000878
:1000F0005905000859050008590500085905000868
:100100005905000859050008590500085905000857
:100110005905000859050008590500085905000847
:100120005905000859050008590500085905000837
:100130005905000859050008590500085905000827
:100140005905000859050008590500085905000817
:100150005905000859050008590500085905000807
:1001600059050008590500085905000859050008F7
:1001700059050008590500085905000859050008E7
:080180005905000859050008AB
:1001880040F21403C2F200031A780AB90120187069
:10019800704700BF40F21400C2F2000008B50368BF
:1001A8002BB140F20003C0F2000303B1984708BD29
:1001B80080B483B000AF4FF000037B607B6803F12D
:1001C80001037B60FAE700BF80B483B000AF7860BA
:1001D800396007F10C07BD4680BC704780B400AF9A
:1001E8004FF6FF731846BD4680BC704780B400AF19
:1001F800BD4680BC704700BF80B400AFFEE700BFBB
:1002080080B400AFFEE700BF80B400AFFEE700BFD8
:1002180080B400AFFEE700BF80B400AFBD4680BC2D
:10022800704700BF80B400AFBD4680BC704700BFB8
:1002380080B400AFBD4680BC704700BF80B400AF3B
:10024800BD4680BC704700BF80B500AF124B124A54
:10025800126842F001021A600F4B4FF000029A60D8
:100268000D4A0D4B1B6823F0847323F4803313600D
:10027800094B0A4A5A60084B074A126822F480223E
:100288001A60054B4FF00002DA6000F095F8044B55
:100298004FF000629A6080BD0038024010300024A0
:1002A80000ED00E080B487B000AF4FF000033B6181
:1002B8004FF000037B614FF00203FB604FF0000337
:1002C800BB604FF002037B60364B9B6803F00C0366
:1002D8003B613B69042B07D0082B09D0002B47D181
:1002E800314B324A1A6047E02F4B314A1A6043E0DB
:1002F8002C4B5B6803F480034FEA9353BB60294B94
:100308005B6803F03F037B60BB68002B0FD0284A73
:100318007B68B2FBF3F2234B596847F6C07301EAD6
:1003280003034FEA931303FB02F37B610EE01F4ABA
:100338007B68B2FBF3F21B4B596847F6C07301EABE
:1003480003034FEA931303FB02F37B61154B5B68CE
:1003580003F440334FEA134303F101034FEA430325
:10036800FB607A69FB68B2FBF3F20F4B1A6003E09B
:100378000D4B0E4A1A6000BF0A4B9B6803F0F0034E
:100388004FEA13130B4AD35CDBB23B61064B1A6886
:100398003B6922FA03F2044B1A6007F11C07BD46B9
:1003A80080BC704700380240000000200024F400A0
:1003B80000127A000400002080B483B000AF4FF030
:1003C80000037B604FF000033B60374B364A1268EE
:1003D80042F480321A60344B1B6803F400333B60EC
:1003E8007B6803F101037B603B68002B03D17B68CA
:1003F800B3F5A06FEFD12C4B1B6803F40033002B2F
:1004080003D04FF001033B6002E04FF000033B6074
:100418003B68012B42D1244B234A126C42F0805294
:100428001A64224B214A126842F480421A601E4B19
:100438001D4A92689A601C4B1B4A926842F400421B
:100448009A60194B184A926842F4A0529A60164B67
:10045800174A5A60144B144A126842F080721A60A4
:1004680000BF114B1B6803F00073002BF9D0114B30
:1004780040F205621A600C4B0B4A926822F00302A4
:100488009A60094B084A926842F002029A6000BFDB
:10049800054B9B6803F00C03082BF9D107F10C07F7
:1004A800BD4680BC704700BF003802400070004065
:1004B80008544007003C024070B540F2745640F2C0
:1004C8007455C0F60006C0F60005761BB61006D0B7
:1004D800002455F8043B01349847A642F9D140F26C
:1004E800785640F27455C0F60006C0F60005761B33
:1004F80000F030F8B61006D0002455F8043B01345B
:100508009847A642F9D170BD002103E00B4B5B5818
:10051800435004310A480B4B42189A42F6D30A4A10
:1005280002E0002342F8043B084B9A42F9D3FFF754
:100538008BFEFFF7C1FFFFF73BFE70477C05000805
:1005480000000020140000201400002018000020E3
:10055800FEE70000F8B500BFF8BC08BC9E4670472F
:0C056800F8B500BFF8BC08BC9E46704708
:040574009D010008DD
:0405780089010008ED
:10057C00007A030A000000000000000001020304DE
:04058C00060708094D
:0400000508000511D9
:00000001FF
